:020000020000FC
:1000000018C011C018951895189518951895189539
:100010001895189518951895189518951895189578
:1000200018951895189572D000E112B3102712BBDD
:1000300018950FE50DBF04E00EBFE0E6F0E00027E5
:100040000193F430E9F7E036D9F7EE27FF27EEE128
:10005000FF27EA95F083E9F70FEF07BB01BB00E04C
:1000600002BB08BB6ED00BD008E012B3102712BB46
:100070000AE005BF00E40BBF7894A895FECFC29AB2
:10008000C09AC198C398BA9AB89ABC98B99ABB9AC0
:1000900030E04CEC13D031E84BE810D030E446EAC5
:1000A0000DD030E440ED0AD033E248EC07D030E226
:1000B00042EC04D031E040EC01D008950F93C19898
:1000C000C29800E1C1980000000047FDC09A47FFB8
:1000D000C09800000000C19A00000000330F441FC8
:1000E0000A9581F7C198C29A0F9108950F9308E07D
:1000F000B499FECFB49BFECF57FD02C0C39801C098
:10010000C39A550F0A95A1F70F91089560E039E35E
:1001100040ECD4DF60E05AEAE9DF5AEAE7DF5AEA66
:10012000E5DF5DE2E3DF54EDE1DF58EF650FDEDF91
:100130006F70562FDBDF5AEAD9DF31E040ECBEDFCB
:100140000895F8941F93A89518E111BD1FE011BD03
:100150001F91789408950F9308EC0A95F1F70F9189
:1001600008950F931F932F9300E818E321E00150A7
:1001700010402040E0F72F911F910F9108950F93A9
:100180001F932F9300E015E32CE001501040204016
:0A01900070F72F911F910F91089551
:00000001FF
